:020000040800F2
:10000000FFFF022075210008AD200008B92000087C
:10001000C1200008C9200008D1200008000000000D
:10002000000000000000000000000000D9200008CF
:10003000E520000800000000F1200008FD20000875
:10004000C5210008C5210008C5210008C5210008F8
:10005000C5210008C5210008C5210008C5210008E8
:10006000C5210008C5210008C5210008C5210008D8
:10007000C5210008C5210008C5210008C5210008C8
:10008000C5210008C5210008C5210008C5210008B8
:10009000C5210008C5210008C5210008C5210008A8
:1000A000C5210008C5210008C5210008C521000898
:1000B000C5210008C5210008C5210008C521000888
:1000C000C5210008C5210008C5210008C521000878
:1000D000C5210008C5210008C5210008C521000868
:1000E000C5210008C5210008C5210008C521000858
:1000F000C5210008C5210008C5210008C521000848
:10010000C5210008C5210008C5210008C521000837
:10011000C5210008C5210008C5210008C521000827
:10012000C5210008C5210008C5210008C521000817
:10013000C5210008C5210008C5210008C521000807
:10014000C5210008C5210008C5210008C5210008F7
:10015000C5210008C5210008C5210008C5210008E7
:10016000C5210008C5210008C5210008C5210008D7
:10017000C5210008C5210008C521000800000000B5
:10018000C5210008C5210008C5210008C5210008B7
:10019000C5210008C5210008C5210008C5210008A7
:0C01A000C5210008C5210008C521000889
:1001AC0008B50548054B1B1A062B00D808BD044B97
:1001BC00002BFBD09847F9E7740000207700002053
:1001CC000000000008B50748074B1B1A9B1003EBF7
:1001DC00D373591000D108BD044A002AFBD09047B4
:1001EC00F9E700BF7400002074000020000000003C
:1001FC0010B5064C237843B9FFF7D2FF044B13B16B
:10020C000448AFF300800123237010BD740000205C
:10021C0000000000E833000808B5074B1BB1074885
:10022C000749AFF300800748036813B1064B03B1CD
:10023C009847BDE80840C5E700000000E833000817
:10024C0078000020740000200000000080B58AB007
:10025C0000AF0346FB71FB79002B0CD1204B204ADD
:10026C00126B42F040021A631D4B1B6B03F04003F0
:10027C003B613B690EE0FB79012B0BD1184B184A03
:10028C00126B42F040021A63154B1B6B03F04003D8
:10029C00FB60FB68FA79134B33F812307B61012356
:1002AC00BB610123FB6102233B62FA790E4B53F8CD
:1002BC00222007F114031046194600F087F9FA7949
:1002CC00094B53F82220F979064B33F811301046BC
:1002DC001946002200F022FB2837BD4680BD00BF26
:1002EC00003802403C3400080000002080B582B089
:1002FC0000AF0346FB71FA79074B53F82220F979CA
:10030C00064B33F8113010461946012200F006FB5B
:10031C000837BD4680BD00BF000000203C340008FB
:10032C0080B500AF0E4B0E4A126842F400721A6090
:10033C000B4B0B4A126842F480621A60084B084A55
:10034C00126842F480721A60032000F00DF90F203D
:10035C0000F00EF800F006F80023184680BD00BF30
:10036C00003C024080B400AFBD465DF8047B704792
:10037C0080B582B000AF786001F09CFC0246094B5E
:10038C00A3FB02139B09184600F014F94FF0FF3041
:10039C007968002200F0F2F8002318460837BD46B1
:1003AC0080BD00BFD34D621080B400AF044B1B68FE
:1003BC005A1C034B1A60BD465DF8047B704700BFA6
:1003CC009000002080B400AF034B1B681846BD465C
:1003DC005DF8047B704700BF9000002080B584B0AE
:1003EC0000AF78600023FB60FFF7ECFFF86000BF04
:1003FC00FFF7E8FF0246FB68D21A7B689A42F7D3F4
:10040C001037BD4680BD00BF80B485B000AF7860AA
:10041C007B6803F00703FB600C4BDB68BB60BA68BE
:10042C004FF6FF031340BB60FB681A02BB68134313
:10043C0043F0BF6343F40033BB60044BBA68DA602B
:10044C001437BD465DF8047B704700BF00ED00E03B
:10045C0080B400AF044BDB6803F4E0631B0A18465E
:10046C00BD465DF8047B704700ED00E080B483B0BE
:10047C0000AF03463960FB7197F90730002B0BDA9C
:10048C000D49FB7903F00F03043B3A68D2B2120119
:10049C00D2B20B441A7609E0084997F907303A684A
:1004AC00D2B21201D2B20B4483F800230C37BD46F2
:1004BC005DF8047B704700BF00ED00E000E100E058
:1004CC0080B489B000AFF860B9607A60FB6803F063
:1004DC000703FB61FB69C3F10703042B28BF04234B
:1004EC00BB61FB690433062B02D9FB69033B00E0BB
:1004FC0000237B61BB69012202FA03F35A1EBB681D
:10050C001A407B699A407B69012101FA03F3591E59
:10051C007B680B40134318462437BD465DF8047BBB
:10052C00704700BF80B582B000AF78607B68013B3C
:10053C00B3F1807F01D301230FE00A4B7A68013AB3
:10054C005A604FF0FF300F21FFF790FF054B002250
:10055C009A60044B07221A60002318460837BD46E0
:10056C0080BD00BF10E000E080B582B000AF7860C5
:10057C007868FFF749FF0837BD4680BD80B586B067
:10058C0000AF0346B9607A60FB7300237B61FFF711
:10059C005FFF78617869B9687A68FFF791FF034665
:1005AC0097F90F2010461946FFF760FF1837BD4624
:1005BC0080BD00BF80B582B000AF78607868FFF76F
:1005CC00B1FF034618460837BD4680BD80B489B0DC
:1005DC0000AF7860396000237B6100233B6100230E
:1005EC00BB610023FB6175E1FB69012202FA03F395
:1005FC007B613B681A687B6913403B613A697B6994
:10060C009A4240F064813B685B68022B03D03B68E4
:10061C005B68122B23D1FB69DA087B68083253F82C
:10062C002230BB61FB6903F007039B000F2202FA27
:10063C0003F3DB43BA691340BB613B681A69FB697E
:10064C0003F007039B0002FA03F3BA691343BB617F
:10065C00FB69DA087B680832B96943F822107B68B9
:10066C001B68BB61FB695B00032202FA03F3DB43EB
:10067C00BA691340BB613B685B6803F00302FB691A
:10068C005B0002FA03F3BA691343BB617B68BA6976
:10069C001A603B685B68012B0BD03B685B68022BD4
:1006AC0007D03B685B68112B03D03B685B68122B4F
:1006BC0030D17B689B68BB61FB695B00032202FA4B
:1006CC0003F3DB43BA691340BB613B68DA68FB692F
:1006DC005B0002FA03F3BA691343BB617B68BA6926
:1006EC009A607B685B68BB61FB69012202FA03F3C9
:1006FC00DB43BA691340BB613B685B6803F01003D2
:10070C001A09FB6902FA03F3BA691343BB617B68EC
:10071C00BA695A607B68DB68BB61FB695B000322CA
:10072C0002FA03F3DB43BA691340BB613B689A6876
:10073C00FB695B0002FA03F3BA691343BB617B6884
:10074C00BA69DA603B685B6803F08053002B00F0F9
:10075C00BE80654B644A526C42F480425A64624BD0
:10076C005B6C03F48043FB60FB68604BFA69920896
:10077C00023253F82230BB61FB6903F003039B0088
:10078C000F2202FA03F3DB43BA691340BB617A68A8
:10079C00574B9A4237D07A68564B9A4231D07A6886
:1007AC00554B9A422BD07A68544B9A4225D07A6892
:1007BC00534B9A421FD07A68524B9A4219D07A689E
:1007CC00514B9A4213D07A68504B9A420DD07A68AA
:1007DC004F4B9A4207D07A684E4B9A4201D109236B
:1007EC0012E00A2310E008230EE007230CE0062396
:1007FC000AE0052308E0042306E0032304E00223B7
:10080C0002E0012300E00023FA6902F003029200E7
:10081C009340BA691343BB61344BFA6992080232B4
:10082C00B96943F822103C4B1B68BB613B69DB4345
:10083C00BA691340BB613B685B6803F48033002BDF
:10084C0003D0BA693B691343BB61334BBA691A6075
:10085C00314B5B68BB613B69DB43BA691340BB61DD
:10086C003B685B6803F40033002B03D0BA693B6927
:10087C001343BB61284BBA695A60274B9B68BB6119
:10088C003B69DB43BA691340BB613B685B6803F4AB
:10089C008013002B03D0BA693B691343BB611E4B19
:1008AC00BA699A601C4BDB68BB613B69DB43BA6974
:1008BC001340BB613B685B6803F40013002B03D04F
:1008CC00BA693B691343BB61134BBA69DA60FB69C4
:1008DC000133FB61FB690F2B7FF686AE2437BD46D7
:1008EC005DF8047B704700BF0038024000380140BF
:1008FC00000002400004024000080240000C0240CC
:10090C00001002400014024000180240001C02407B
:10091C000020024000240240003C014080B483B01F
:10092C0000AF786013460A467A807B707B78002B88
:10093C0003D07A887B689A6103E07B881A047B6811
:10094C009A610C37BD465DF8047B704780B584B066
:10095C0000AF78600023FB600023BB607B68002B3A
:10096C0001D10123C1E07B6893F83530DBB2002B59
:10097C0006D17B68002283F83420786801F042FBB2
:10098C007B68022283F835207B681B687A681268C2
:10099C00126822F001021A6001F0B2F9B860BA686C
:1009AC00544BA3FB02039B0CFB607B681B68FA682F
:1009BC005A607B681A687B6859684F4B994202D819
:1009CC00FB68013309E0FB684FF4967101FB03F1FE
:1009DC004A4BA3FB01039B09013313627B68196823
:1009EC007B685A68444B9A4212D87B685B685B0000
:1009FC00BA68B2FBF3F3C3F30B03032B06D97B6882
:100A0C005B685B00BA68B2FBF3F345E0042343E098
:100A1C007B689B68002B0FD17B685A6813465B0080
:100A2C001344BA68B2FBF3F3C3F30B03002B14BFEC
:100A3C0000230123DBB210E07B685A6813469B004D
:100A4C0013449A001344BA68B2FBF3F3C3F30B03D9
:100A5C00002B14BF00230123DBB2002B01D0012398
:100A6C001AE07B689B68002B0AD17B685A68134696
:100A7C005B001344BA68B2FBF3F343F400430BE09E
:100A8C007B685A6813469B0013449A001344BA6857
:100A9C00B2FBF3F343F44043CB617B681B687A6889
:100AAC00D1697A68126A0A431A607B681B687A6893
:100ABC0011697A68D2680A439A607B681B687A6805
:100ACC0051697A6892690A43DA607B681B687A68B4
:100ADC001268126842F001021A607B6800229A6365
:100AEC007B68012283F83520002318461037BD4659
:100AFC0080BD00BF83DE1B43A0860100D34D621076
:100B0C0080B586B000AFF8607A600A467A813B8186
:100B1C00FB6893F83530DBB2012B40F09A807B6890
:100B2C00002B02D03B89002B01D1012392E0F86805
:100B3C004A49012242F2107300F010FB0346002BCD
:100B4C0001D0022386E0FB6893F83430012B01D1ED
:100B5C0002237FE0FB68012283F83420FB681B68CA
:100B6C00FA681268126822F400621A60FB6812229A
:100B7C0083F83520FB6800229A637B89F868194654
:100B8C003A6A00F0E7F90346002B0FD0FB689B6B29
:100B9C00042B05D1FB68002283F83420012359E093
:100BAC00FB68002283F83420032353E0FB681B68A6
:100BBC005B697B61FB681B689B697B617B6928E0D7
:100BCC00F868274900223B6A00F0C8FA0346002B5C
:100BDC0001D003233EE0FB681A687B68591C7960DE
:100BEC001B7813613B89013B3B81FB681B685B698C
:100BFC0003F00403002B0CD03B89002B09D0FB68BD
:100C0C001A687B68591C79601B7813613B89013B1E
:100C1C003B813B89002BD3D1F868114900223B6AF8
:100C2C0000F09CFA0346002B01D0032312E0FB6872
:100C3C001B68FA681268126842F400721A60FB684A
:100C4C00012283F83520FB68002283F8342000232E
:100C5C0000E0022318461837BD4680BD0200100084
:100C6C008000010080B588B000AFF8607A600A4659
:100C7C007A813B81FB6893F83530DBB2012B40F075
:100C8C0064817B68002B02D03B89002B01D10123AE
:100C9C005CE1F8689449012242F2107300F05EFAAC
:100CAC000346002B01D0022350E1FB6893F834304B
:100CBC00012B01D1022349E1FB68012283F8342086
:100CCC00FB681B68FA681268126822F400621A60EA
:100CDC00FB68222283F83520FB6800229A637B890B
:100CEC00F8681946BA6A00F097F90346002B0FD042
:100CFC00FB689B6B042B05D1FB68002283F8342026
:100D0C00012323E1FB68002283F8342003231DE137
:100D1C003B89012B19D1FB681B68FA6812681268B1
:100D2C0022F480621A60FB681B685B69FB61FB68DC
:100D3C001B689B69FB61FB69FB681B68FA6812689E
:100D4C00126842F400721A602EE03B89022B19D112
:100D5C00FB681B68FA681268126822F480621A60D9
:100D6C00FB681B68FA681268126842F400621A6029
:100D7C00FB681B685B69BB61FB681B689B69BB619B
:100D8C00BB6911E0FB681B68FA681268126842F4D0
:100D9C0080621A60FB681B685B697B61FB681B687F
:100DAC009B697B617B69C2E0C1E03B89032B00F24C
:100DBC008F803B89012B16D1F8684C490022BB6A05
:100DCC0000F0CCF90346002B01D00323BEE07B6876
:100DDC005A1C7A60FA6812681269D2B21A703B898E
:100DEC00013B3B81A3E03B89022B29D1F8684049A8
:100DFC000022BB6A00F0B2F90346002B01D003239A
:100E0C00A4E0FB681B68FA681268126842F400726E
:100E1C001A607B685A1C7A60FA6812681269D2B23E
:100E2C001A703B89013B3B817B685A1C7A60FA68DB
:100E3C0012681269D2B21A703B89013B3B8176E091
:100E4C00F8682B490022BB6A00F088F90346002B96
:100E5C0001D003237AE0FB681B68FA6812681268F9
:100E6C0022F480621A607B685A1C7A60FA681268F5
:100E7C001269D2B21A703B89013B3B81F8681C495C
:100E8C000022BB6A00F06AF90346002B01D0032351
:100E9C005CE0FB681B68FA681268126842F4007226
:100EAC001A607B685A1C7A60FA6812681269D2B2AE
:100EBC001A703B89013B3B817B685A1C7A60FA684B
:100ECC0012681269D2B21A703B89013B3B812EE049
:100EDC00F86806490022BB6A00F040F90346002B73
:100EEC0008D0032332E000BF0200100040000100D4
:100EFC00040001007B685A1C7A60FA681268126957
:100F0C00D2B21A703B89013B3B81FB681B685B6961
:100F1C0003F00403002B0AD07B685A1C7A60FA6831
:100F2C0012681269D2B21A703B89013B3B813B8932
:100F3C00002B7FF43AAFFB68012283F83520FB6865
:100F4C00002283F83420002300E0022318462037C7
:100F5C00BD4680BD80B584B000AFF8600B467A60AA
:100F6C007B81FB681B68FA681268126842F4807215
:100F7C001A60F8684FF0011100227B6800F0EEF85F
:100F8C000346002B01D003233DE0FB681B69B3F53E
:100F9C00804F07D1FB681B687A89D2B202F0FE023F
:100FAC001A611FE0FB681B687A8902F44072D21147
:100FBC00D2B262F00F02D2B21A61F86814497A68A0
:100FCC0000F056F90346002B07D0FB689B6B042BF3
:100FDC0001D1012317E0032315E0FB681B687A8914
:100FEC00D2B21A61F8680B497A6800F041F90346ED
:100FFC00002B07D0FB689B6B042B01D1012302E073
:10100C00032300E0002318461037BD4680BD00BF07
:10101C00080001000200010080B586B000AFF86046
:10102C000B467A607B81FB681B68FA681268126851
:10103C0042F480621A60FB681B68FA6812681268D6
:10104C0042F480721A60F8684FF0011100227B683C
:10105C0000F084F80346002B01D0032376E0FB68F4
:10106C001B69B3F5804F08D1FB681B687A89D2B233
:10107C0042F00102D2B21A6157E0FB681B687A8910
:10108C0002F44072D211D2B262F00F02D2B21A61E3
:10109C00F86830497A6800F0EBF80346002B07D06B
:1010AC00FB689B6B042B01D101234FE003234DE024
:1010BC00FB681B687A89D2B21A61F86826497A688B
:1010CC0000F0D6F80346002B07D0FB689B6B042B73
:1010DC0001D101233AE0032338E0FB681B685B690C
:1010EC007B61FB681B689B697B617B69FB681B6888
:1010FC00FA681268126842F480721A60F8684FF04D
:10110C00011100227B6800F029F80346002B01D066
:10111C0003231BE0FB681B687A8902F44072D2112E
:10112C00D2B262F00E02D2B21A61F8680A497A6839
:10113C0000F09EF80346002B07D0FB689B6B042B3A
:10114C0001D1012302E0032300E0002318461837E5
:10115C00BD4680BD080001000200010080B586B0CC
:10116C0000AFF860B9603B601346FB7100237B61F4
:10117C00FFF728F97861FB79002B3AD118E03B682E
:10118C00B3F1FF3F14D03B68002B07D0FFF71AF9DF
:10119C0002467B69D21A3B689A4209D9FB68012244
:1011AC0083F83520FB68002283F8342003235BE0AE
:1011BC00BB681B0CDBB2012B0CD1FB681B685B6999
:1011CC00DA43BB6813409BB2002B0CBF00230123F6
:1011DC00DBB20BE0FB681B689B69DA43BB6813400E
:1011EC009BB2002B0CBF00230123DBB2002BC6D11A
:1011FC0039E018E03B68B3F1FF3F14D03B68002B9B
:10120C0007D0FFF7DFF802467B69D21A3B689A4297
:10121C0009D9FB68012283F83520FB68002283F88A
:10122C003420032320E0BB681B0CDBB2012B0CD158
:10123C00FB681B685B69DA43BB6813409BB2002BED
:10124C0014BF00230123DBB20BE0FB681B689B6916
:10125C00DA43BB6813409BB2002B14BF002301235D
:10126C00DBB2002BC6D1002318461837BD4680BD13
:10127C0080B586B000AFF860B9607A6000237B61FE
:10128C00FFF7A0F8786139E0FB681B685B6903F431
:10129C008063002B19D0FB681B68FA68126812680F
:1012AC0042F400721A60FB681B686FF480625A612A
:1012BC00FB6804229A63FB68012283F83520FB68E3
:1012CC00002283F83420012339E07B68B3F1FF3F1F
:1012DC0014D07B68002B07D0FFF774F802467B69AB
:1012EC00D21A7B689A4209D9FB68012283F835200F
:1012FC00FB68002283F83420032320E0BB681B0C1E
:10130C00DBB2012B0CD1FB681B685B69DA43BB6851
:10131C0013409BB2002B0CBF00230123DBB20BE06C
:10132C00FB681B689B69DA43BB6813409BB2002BBC
:10133C000CBF00230123DBB2002BA5D100231846E0
:10134C001837BD4680BD00BF80B586B000AF002306
:10135C007B612D4B2C4A126C42F080521A642A4B42
:10136C001B6C03F080533B603B684FF480333B6154
:10137C003B6993FAA3F3FB60FB68B3FA83F39B001E
:10138C0003F1844303F5602301221A60FFF71AF876
:10139C00786109E0FFF716F802467B69D31AB3F5BA
:1013AC007A7F01D903232BE0184B5B6803F480335D
:1013BC00002BEFD04FF40033BB60BB6893FAA3F360
:1013CC007B607B68B3FA83F39B0003F1844303F5E2
:1013DC00602301221A60FEF7F5FF786109E0FEF741
:1013EC00F1FF02467B69D31AB3F57A7F01D9032347
:1013FC0006E0064B5B6803F40033002BEFD00023B0
:10140C0018461837BD4680BD0038024000700040B9
:10141C0080B58EB000AF786000237B637B681B685F
:10142C0003F00103002B6AD0A24B9B6803F00C0362
:10143C00042B0BD09F4B9B6803F00C03082B12D191
:10144C009C4B5B6803F48003002B0CD0994B1B68FE
:10145C0003F40033002B05D07B685B68002B01D1B3
:10146C0001230FE24BE0944B00221A70FEF7AAFF07
:10147C0078630AE0FEF7A6FF02467B6BD21A41F2B4
:10148C0088339A4201D90323FCE18A4B1B6803F48D
:10149C000033002BEED1884B7A685268D2B21A70A6
:1014AC007B685B68002B15D0FEF78CFF78630AE035
:1014BC00FEF788FF02467B6BD21A41F288339A42C0
:1014CC0001D90323DEE17B4B1B6803F40033002BB3
:1014DC00EED014E0FEF776FF78630AE0FEF772FFB9
:1014EC0002467B6BD21A41F288339A4201D903230C
:1014FC00C8E1704B1B6803F40033002BEED17B6802
:10150C001B6803F00203002B77D06A4B9B6803F037
:10151C000C03002B0BD0674B9B6803F00C03082BC0
:10152C0026D1644B5B6803F48003002B20D1614B04
:10153C001B6803F00203002B05D07B68DB68012BD2
:10154C0001D001239EE15B4B5A4A126822F0F8014C
:10155C007A681069F8223A633A6B92FAA2F2FA624C
:10156C00FA6AB2FA82F200FA02F20A431A6044E012
:10157C007B68DB68002B2AD0504B01221A60FEF7E7
:10158C0021FF786308E0FEF71DFF02467B6BD31A40
:10159C00642B01D9032375E1464B1B6803F002034E
:1015AC00002BF0D0434B434A126822F0F8017A68C2
:1015BC001069F822BA62BA6A92FAA2F27A627A6A6C
:1015CC00B2FA82F200FA02F20A431A6015E03B4BBF
:1015DC0000221A60FEF7F6FE786308E0FEF7F2FED2
:1015EC0002467B6BD31A642B01D903234AE1314B9E
:1015FC001B6803F00203002BF0D17B681B6803F01F
:10160C000803002B30D07B685B69002B16D02C4B69
:10161C0001221A60FEF7D6FE786308E0FEF7D2FED0
:10162C0002467B6BD31A642B01D903232AE1214B8D
:10163C005B6F03F00203002BF0D015E0204B00226F
:10164C001A60FEF7BFFE786308E0FEF7BBFE0246A9
:10165C007B6BD31A642B01D9032313E1154B5B6FFE
:10166C0003F00203002BF0D17B681B6803F004032A
:10167C00002B7BD00F4B0F4A126C42F080521A6435
:10168C000C4B1B6C03F08053BB60BB680D4B0D4ABD
:10169C00126842F480721A60FEF794FE786313E0CD
:1016AC00FEF790FE02467B6BD31A642B0CD90323F6
:1016BC00E8E000BF00380240023802400000474218
:1016CC00800E474200700040704B1B6803F480731F
:1016DC00002BE5D06E4B00221A70FEF773FE786378
:1016EC000AE0FEF76FFE02467B6BD21A41F288339A
:1016FC009A4201D90323C5E0664B1B6F03F002032A
:10170C00002BEED1624B7A689268D2B21A707B6869
:10171C009B68002B15D0FEF755FE78630AE0FEF7A8
:10172C0051FE02467B6BD21A41F288339A4201D9A0
:10173C000323A7E0574B1B6F03F00203002BEED0E3
:10174C0014E0FEF73FFE78630AE0FEF73BFE02462C
:10175C007B6BD21A41F288339A4201D9032391E070
:10176C004C4B1B6F03F00203002BEED17B689B6983
:10177C00002B00F08680474B9B6803F00C03082B72
:10178C007DD07B689B69022B62D1434B00221A608F
:10179C00FEF718FE786308E0FEF714FE02467B6B3A
:1017AC00D31A642B01D903236CE03A4B1B6803F06A
:1017BC000073002BF0D1374B7A68D1697A68126AC2
:1017CC0011437A68506A47F6C0723A623A6A92FAE2
:1017DC00A2F2FA61FA69B2FA82F200FA02F2114349
:1017EC007A68926A5208501E4FF44032BA61BA6954
:1017FC0092FAA2F27A617A69B2FA82F200FA02F2F1
:10180C0011437A68D06A4FF070623A613A6992FA81
:10181C00A2F2FA60FA68B2FA82F200FA02F20A4311
:10182C005A601D4B01221A60FEF7CCFD786308E06C
:10183C00FEF7C8FD02467B6BD31A642B01D9032338
:10184C0020E0144B1B6803F00073002BF0D018E061
:10185C00114B00221A60FEF7B5FD786308E0FEF725
:10186C00B1FD02467B6BD31A642B01D9032309E02B
:10187C00084B1B6803F00073002BF0D101E001232F
:10188C0000E0002318463837BD4680BD007000408C
:10189C0070380240003802406000474280B584B086
:1018AC0000AF786039600023FB60A24B1B6803F02B
:1018BC000F023B689A4280F0A8809E4B3A68D2B2E5
:1018CC001A709C4B1B6803F00F023B689A4201D0C4
:1018DC00012369E17B681B6803F00203002B08D02D
:1018EC00954B954A926822F0F0017A6892680A4307
:1018FC009A607B681B6803F00103002B00F03181B8
:10190C007B685B68012B07D18B4B1B6803F400339E
:10191C00002B1AD1012347E17B685B68022B03D0B3
:10192C007B685B68032B08D1834B1B6803F0007347
:10193C00002B01D1012337E107E07F4B1B6803F03B
:10194C000203002B01D101232EE17B4B7A4A9268D2
:10195C0022F003017A6852680A439A60FEF732FD5E
:10196C00F8607B685B68012B12D10AE0FEF72AFD58
:10197C000246FB68D21A41F288339A4201D90323FA
:10198C0012E16D4B9B6803F00C03042BEED1E8E0E5
:10199C007B685B68022B12D10AE0FEF713FD02464E
:1019AC00FB68D21A41F288339A4201D90323FBE037
:1019BC00614B9B6803F00C03082BEED1D1E07B68E4
:1019CC005B68032B0ED101E00323EDE05A4B9B68BF
:1019DC00FEF7F8FC0246FB68D21A41F288339A42B1
:1019EC00F4D9F1E70AE0FEF7EDFC0246FB68D21AE7
:1019FC0041F288339A4201D90323D5E04E4B9B68C0
:101A0C0003F00C03002BEED1ABE07B681B6803F0FA
:101A1C000203002B08D0484B474A926822F0F00191
:101A2C007A6892680A439A607B681B6803F001032A
:101A3C00002B00F089807B685B68012B07D13E4B43
:101A4C001B6803F40033002B1AD10123ACE07B6834
:101A5C005B68022B03D07B685B68032B08D1364B89
:101A6C001B6803F00073002B01D101239CE007E0FD
:101A7C00314B1B6803F00203002B01D1012393E0CF
:101A8C002D4B2D4A926822F003017A6852680A4362
:101A9C009A60FEF797FCF8607B685B68012B12D1AB
:101AAC000AE0FEF78FFC0246FB68D21A41F288333B
:101ABC009A4201D9032377E01F4B9B6803F00C0378
:101ACC00042BEED140E07B685B68022B12D10AE05C
:101ADC00FEF778FC0246FB68D21A41F288339A4230
:101AEC0001D9032360E0144B9B6803F00C03082B13
:101AFC00EED129E07B685B68032B0ED101E0032358
:101B0C0052E00D4B9B68FEF75DFC0246FB68D21A57
:101B1C0041F288339A42F4D9F1E70FE0FEF752FC18
:101B2C000246FB68D21A41F288339A4206D9032343
:101B3C003AE000BF003C0240003802401C4B9B685E
:101B4C0003F00C03002BE9D11A4B3A68D2B21A708D
:101B5C00184B1B6803F00F023B689A4201D001231B
:101B6C0022E07B681B6803F00403002B08D0104BA9
:101B7C000F4A926822F4E0517A68D2680A439A605C
:101B8C007B681B6803F00803002B09D0084B084A3C
:101B9C00926822F460417A681269D2000A439A6012
:101BAC000F20FEF7E5FB002318461037BD4680BD1D
:101BBC0000380240003C024080B48BB000AF0023E0
:101BCC00FB6100237B620023BB6100233B62364B2D
:101BDC009B6803F00C03042B06D0082B07D0002BBA
:101BEC0058D1324B3B6258E0314B3B6255E02E4BA7
:101BFC005B6803F03F03FB612B4B5B6803F48003D2
:101C0C00002B17D02A4AFB69B2FBF3F2264B59681A
:101C1C0047F6C0730B4047F6C0717961796991FA48
:101C2C00A1F139613969B1FA81F1CB4003FB02F3BF
:101C3C007B6216E01D4AFB69B2FBF3F21A4B596842
:101C4C0047F6C0730B4047F6C071F960F96891FA1A
:101C5C00A1F1B960B968B1FA81F1CB4003FB02F391
:101C6C007B62114B5B6803F440324FF440337B6072
:101C7C007B6893FAA3F33B603B68B3FA83F322FAD5
:101C8C0003F301335B00BB617A6ABB69B2FBF3F30C
:101C9C003B6202E0054B3B6200BF3B6A18462C37A7
:101CAC00BD465DF8047B7047003802400024F40008
:101CBC0000127A0080B582B000AFFFF77DFF0246BC
:101CCC000C4B9B6803F0F001F0237B607B6893FA6C
:101CDC00A3F33B603B68B3FA83F321FA03F30649A1
:101CEC00CB5CDA40054B1A60044B1B68184608376E
:101CFC00BD4680BD00380240403400080C00002076
:101D0C0080B582B000AFFFF7D5FF02460B4B9B6846
:101D1C0003F4E0514FF4E0537B607B6893FAA3F338
:101D2C003B603B68B3FA83F321FA03F30449CB5CC1
:101D3C0022FA03F318460837BD4680BD003802402E
:101D4C004034000880B584B000AFFEF7E9FA0020FB
:101D5C00FEF77CFA0120FEF779FA00F005F9414B09
:101D6C00414A1A603F4B4FF480421A613D4B3F4A47
:101D7C005A603C4B00225A613A4B00229A60394B14
:101D8C000022DA61374B00221A62364B1022DA60DD
:101D9C00344B11229A613348FEF7D8FD0346002BD1
:101DAC0001D000F0DBF8324B1B781846002100F014
:101DBC0071F8304B1B781846082100F06BF8FEF7D1
:101DCC0001FBF8600023BB600220FEF707FB2A4BE7
:101DDC001B781846062100F08FF80346062B02D01C
:101DEC00264800F091FA264B5B781B029AB2244BE2
:101DFC001B7813439BB2FB80214BDB781B029AB2FE
:101E0C001F4B9B7813439BB2BB801D4B5B791B0212
:101E1C009AB21B4B1B7913439BB27B80FEF7D2FA11
:101E2C000246FB68D31AB3F57A7F17D9FB8815489D
:101E3C00194600F0F1F9BB881348194600F0ECF98B
:101E4C007B881248194600F0E7F91148B96800F090
:101E5C00E3F90023BB60FEF7B5FAF860BB68013309
:101E6C00BB60B1E744010020005C0040801A060012
:101E7C0009000020080000200A000020003400089F
:101E8C00800100200C340008143400081C340008B5
:101E9C002434000880B584B002AF02460B46FA71B8
:101EAC00BB71134BFA791A704FF47A730093114883
:101EBC003A210F4A0123FEF723FE0346002B01D0E3
:101ECC00FF2311E00A4BBA791A704FF47A7300931E
:101EDC0008483A21064A0123FEF712FE0346002B5E
:101EEC0001D0FF2300E0012318460837BD4680BD12
:101EFC00940000204401002080B584B002AF02465B
:101F0C000B46FA71BB71124BFA791A704FF47A7353
:101F1C00009310483A210E4A0123FEF7F1FD0346C7
:101F2C00002B01D0FF230FE0BB799BB24FF47A72E8
:101F3C00009208483A21084AFEF794FE0346002B0B
:101F4C0001D0FF2300E0BB7918460837BD4680BDA1
:101F5C0094000020440100208001002080B500AFD7
:101F6C000120FEF7C3F9FEE780B594B000AF234B18
:101F7C00224A126C42F080521A64204B1B6C03F004
:101F8C008053BB60BB681E4B1D4A126842F4404232
:101F9C001A601B4B1B6803F440437B607B68012376
:101FAC00FB6001233B6102237B624FF48003BB6225
:101FBC000823FB624FF4B4733B6302237B63072358
:101FCC00BB6307F10C031846FFF722FAFFF7BCF9C5
:101FDC000F23FB6302233B6400237B644FF4A05369
:101FEC00BB644FF48053FB6407F13C031846052196
:101FFC00FFF754FC5037BD4680BD00BF003802408F
:10200C000070004080B58AB000AF7860214B214A47
:10201C00126B42F001021A631E4B1B6B03F001039F
:10202C003B613B691B4B1B4A126B42F004021A6367
:10203C00184B1B6B03F00403FB60FB68154B154A34
:10204C00126C42F400021A64124B1B6C03F4000372
:10205C00BB60BB684FF480737B611223BB610123AF
:10206C00FB6102233B6204237B6207F114030A48E1
:10207C001946FEF7ABFA4FF400737B6104237B62C5
:10208C0007F1140305481946FEF7A0FA2837BD4698
:10209C0080BD00BF00380240000002400008024032
:1020AC0080B400AFBD465DF8047B704780B400AFD0
:1020BC00FEE700BF80B400AFFEE700BF80B400AF06
:1020CC00FEE700BF80B400AFFEE700BF80B400AFF6
:1020DC00BD465DF8047B704780B400AFBD465DF82B
:1020EC00047B704780B400AFBD465DF8047B70473D
:1020FC0080B500AFFEF758F980BD00BF80B400AFCB
:10210C00164B164AD2F8882042F47002C3F8882085
:10211C00134B134A126842F001021A60104B002252
:10212C009A600F4A0E4B1B6823F0847323F48033A0
:10213C0013600B4B0B4A5A60094B094A126822F484
:10214C0080221A60064B0022DA60044B4FF00062CA
:10215C009A60BD465DF8047B704700BF00ED00E05F
:10216C000038024010300024DFF834D0002103E0A6
:10217C000C4B5B58435004310B480C4B42189A42A1
:10218C00F6D30B4A02E0002342F8043B094B9A4277
:10219C00F9D3FFF7B3FF00F011F8FFF7D3FD704749
:1021AC00FFFF0220F434000800000020740000201F
:1021BC007400002088010020FEE7000070B50E4B73
:1021CC000E4DED1AAD1000241E46AC4204D056F84C
:1021DC00242090470134F8E701F000F9084D094B31
:1021EC00ED1AAD1000241E46AC4204D056F8242043
:1021FC0090470134F8E770BDEC340008EC3400086B
:10220C00F0340008EC34000802440346934202D038
:10221C0003F8011BFAE770470FB40A4B13B51C689F
:10222C0024B1A36913B9204600F026FA05AB204669
:10223C00A168049A019300F0B9FB02B0BDE810400C
:10224C0004B070477000002070B50E46054618B1FA
:10225C0083690BB900F010FAAC68A389190701D592
:10226C00236983B92846214600F0AAF858B14FF0EB
:10227C00FF3070BD002B0EDB236816F8012C1A7092
:10228C00236801332360A36816F8012B013BA3607C
:10229C00002AEFD117E0A269934209DB236816F8F4
:1022AC00012C1A70236819780A29EAD1284602E011
:1022BC0016F8011C2846224600F02EF8B0F1FF3229
:1022CC0050425041D2E7002B16DAA269934208DB48
:1022DC0023680A221A7023681978914210D1284673
:1022EC0001E028460A21224600F016F8B0F1FF332F
:1022FC005842584130B1BAE723680A221A70236851
:10230C00013323600A2070BD024B01461868FFF7A9
:10231C009BBF00BF7000002070B50E4614460546EA
:10232C0018B183690BB900F0A7F9224B9C4201D17B
:10233C006C6808E0204B9C4201D1AC6803E01F4B59
:10234C009C4208BFEC68A369A360A3891A0709D54E
:10235C0023693BB123692068C01A63699842F6B2BD
:10236C000FDB08E02846214600F02AF80028F1D0BF
:10237C004FF0FF3070BD2846214600F013F90028BD
:10238C00F6D1A368013BA36023685A1C22601E701F
:10239C0063690130984204D0A389DB0707D50A2E64
:1023AC0005D12846214600F0FDF80028E0D1304642
:1023BC0070BD00BF58340008783400089834000809
:1023CC00324B70B51D6806460C4625B1AB6913B986
:1023DC00284600F051F92E4B9C4201D16C6808E064
:1023EC002C4B9C4201D1AC6803E02B4B9C4208BFA8
:1023FC00EC68A28993B2190720D4DD0605D4092311
:10240C0042F040023360A2813BE0580712D5616B69
:10241C0041B104F14403994202D0304600F004FA71
:10242C0000236363A38923F02403A3810023636047
:10243C0023692360A38943F00803A38123694BB963
:10244C00A38903F42073B3F5007F03D030462146F3
:10245C0000F09CF9A38913F0010205D00022A260C0
:10246C0062695242A26103E0990758BF6269A26097
:10247C0022694AB903F0800080B230B143F04003C6
:10248C00A3814FF0FF3070BD002070BD70000020A4
:10249C005834000878340008983400088A892DE9EB
:1024AC00F041054610070C4657D44B68002B02DC54
:1024BC000B6C002B18DDE66AB6B102F480520023D7
:1024CC0092B22F682B600AB1626D10E0216A284627
:1024DC000123B047411C024609D12B683BB11D2B8F
:1024EC0001D0162B46D12F600020BDE8F081A389C6
:1024FC005B0705D56368D21A636B0BB1236CD21AD8
:10250C00E66A216A28460023B047461CA28905D1F9
:10251C002B681BB11D2B01D0162B19D10023636026
:10252C00D1042369236004D5421C01D12B6803B963
:10253C006065616B2F600029D6D004F14403994289
:10254C0002D0284600F070F900206063BDE8F081ED
:10255C0042F04002A281BDE8F0810E69002EC3D08A
:10256C000B680E60C6EB030893070CBF4B69002386
:10257C008B6012E0A38943F04003A3814FF0FF303E
:10258C00BDE8F081A76A216A284632464346B8471F
:10259C000028EFDD0644C0EB0808B8F1000FF1DCB1
:1025AC00A2E7000038B50B6905460C46DBB118B143
:1025BC0083690BB900F060F80C4B9C4201D16C683C
:1025CC0008E00B4B9C4201D1AC6803E0094B9C42E8
:1025DC0008BFEC68B4F90C302BB128462146BDE895
:1025EC003840FFF75BBF002038BD00BF58340008EF
:1025FC007834000898340008014900F0A9B800BFED
:10260C00AD2C0008002310B50446036043608360C2
:10261C0081814366C28103614361836119465C30E9
:10262C000822FFF7F1FD054B6362054BA362054BD6
:10263C00E362054B2462236310BD00BFE12B00084D
:10264C00032C00083B2C00085F2C000870B54B1EB7
:10265C0068255D430E4605F1740100F029F9044626
:10266C0040B1002180E842000C30A06005F1680206
:10267C00FFF7CAFD204670BD836910B5044633BB15
:10268C008364C3640365124B124A1B6882629842CE
:10269C0004BF0123836100F01FF86060204600F046
:1026AC001BF8A060204600F017F80421E06000221F
:1026BC006068FFF7A7FFA06809210122FFF7A2FFBE
:1026CC00E06812210222FFF79DFF0123A36110BDD8
:1026DC005434000805260008F8B51B4B1E68B36976
:1026EC00074613B93046FFF7C7FF4836B46873681E
:1026FC00013B04D4B4F90C5075B16834F8E7336875
:10270C002BB938460421FFF7A1FF306008B13668B9
:10271C00ECE70C233B60F8BD4FF6FF73E38101231C
:10272C00A38165662560A560656025616561A5610D
:10273C0004F15C0029460822FFF766FD6563A5637A
:10274C00A564E5642046F8BD543400087047704712
:10275C002DE9F8438046894600F14804002694B1DF
:10276C00A5686768013F0CD4AB89012B07D9B5F973
:10277C000E30013303D040462946C847064368351E
:10278C00F0E72468EBE73046BDE8F883F0B58B89B9
:10279C009E0791B005460C4626D4B1F90E100029BF
:1027AC0009DAA38913F0800F4FF0000714BF4026FD
:1027BC004FF480660DE001AA00F0C4FA0028F0DBAB
:1027CC00029F07F47047B7F500514F424F414FF449
:1027DC0080662846314600F06BF860B9A3899A05EB
:1027EC001DD443F00203A38104F14703236023614A
:1027FC000123636113E00B4BAB62A389206043F0B0
:10280C008003A381206166614FB12846B4F90E1094
:10281C0000F0AAFA18B1A38943F00103A38111B007
:10282C00F0BD00BF0526000830B500293CD051F89A
:10283C00042C0B1F1D49002AB8BF9B180A680C46B4
:10284C0012B95A600B6030BD93420DD219685818FA
:10285C00904203D15A581144426819605A6023605F
:10286C0030BD994203D80A4651680029F9D1146841
:10287C0015199D420AD11B682344D0188842136055
:10288C0012D10868034413604B680CE002D90C2386
:10289C00036030BD18681C188C4203D10C68496861
:1028AC00204418605960536030BD00BF9C0000206C
:1028BC0070B5CD1C25F0030508350C2D38BF0C2543
:1028CC00002D064603DA0C233360002070BD8D42C8
:1028DC00F9D3204B1C6818462146A1B10B685B1B31
:1028EC000ED40B2B03D90B60CC18CD501FE08C42AF
:1028FC0002D1626802601AE04B6863600C4616E015
:10290C000C464968E9E7144C23681BB9304600F0C3
:10291C0051F920602946304600F04CF9431C014621
:10292C00D1D0C41C24F0030484420AD1256004F1E4
:10293C000B00231D20F00700C31A09D05A42E250A5
:10294C0070BD3046611A00F035F90130EED1BAE7AE
:10295C0070BD00BF9C000020980000209368013BD4
:10296C00002B10B5936005DA9469A34208DBCBB257
:10297C000A2B05D01368581C10601970C8B210BD12
:10298C00BDE81040FFF7C8BCF8B505460E46144626
:10299C00D718BC4208D0284614F8011B3246FFF762
:1029AC00DDFF431CF5D100E00020F8BD2DE9F0431C
:1029BC009DB00D4617460393064618B183690BB9B3
:1029CC00FFF75AFE734B9D4201D1756808E0724BBC
:1029DC009D4201D1B56803E0704B9D4208BFF5687C
:1029EC00AB8918070AD52B6943B10023099320231F
:1029FC008DF8293030238DF82A3038E030462946BE
:102A0C00FFF7DEFC0028F0D04FF0FF30BFE0039A58
:102A1C00111D12680391002A70DB07920134237890
:102A2C002E2B7DD05E4F21783846032200F0BEF964
:102A3C0030B1C71B049B4020B840034304930134BE
:102A4C00217858488DF828100622671C00F0AEF942
:102A5C00002800F08A80544B002B7DD1039B073358
:102A6C0023F0070308330393099B434409933B4624
:102A7C001C4613F8012B1AB9B4EB07090ED002E06F
:102A8C00252AF5D1F8E7304629463A464B46FFF75A
:102A9C007BFF013076D0099B4B4409932378002BA4
:102AAC0070D000234FF0FF320493079305920693E6
:102ABC008DF853301A9304F101094C463B4F2178A1
:102ACC003846052200F072F909F10109049B28B17E
:102ADC00C71B0120B84003430493EEE7D90644BF5B
:102AEC0020228DF853201A0744BF2B228DF8532037
:102AFC0022782A2A8BD0079B214605E0524243F0CC
:102B0C0002030792049389E70C4601312278303A8C
:102B1C00092A03D80A2000FB0323F5E707937EE775
:102B2C0063782A2B0AD1039B1A1D1B680392002B76
:102B3C0004F10204B8BF4FF0FF330BE0611C00231B
:102B4C000C4601312278303A092A03D80A2000FBBE
:102B5C000323F5E7059365E703AB0093304604A91F
:102B6C002A46134BAFF3008007E003AB00933046CB
:102B7C0004A92A460E4B00F09BF9B0F1FF3F8046AA
:102B8C007FF472AFAB895B063FF53EAF09981DB081
:102B9C00BDE8F083583400087834000898340008F5
:102BAC00BE340008C234000800000000B83400082D
:102BBC009529000838B5064C0023054608462360C5
:102BCC0000F0A0FB431C02D1236803B12B6038BD7D
:102BDC008401002010B50C46B1F90E1000F07EFAFD
:102BEC00002803DB636D0344636510BDA38923F4E4
:102BFC008053A38110BD2DE9F0411D468B89DB0567
:102C0C0007460C46164605D5B1F90E1000220223D4
:102C1C0000F0BAF8A389B4F90E1023F48053A38101
:102C2C00384632462B46BDE8F04100F017B810B5D7
:102C3C000C46B1F90E1000F0A7F8431CA38903D180
:102C4C0023F48053A38110BD43F48053A3816065AA
:102C5C0010BDB1F90E1000F013B8000038B5074CD8
:102C6C00054600202060084611461A4600F0F7FA87
:102C7C00431C02D1236803B12B6038BD84010020B2
:102C8C0038B5064C002305460846236000F016FBB9
:102C9C00431C02D1236803B12B6038BD8401002092
:102CAC0070B505460C4609B9002070BD18B1836992
:102CBC000BB9FFF7E1FC204B9C4201D16C6808E09A
:102CCC001E4B9C4201D1AC6803E01D4B9C4208BFDB
:102CDC00EC68B4F90C30002BE6D028462146FFF7FF
:102CEC00DDFB236B064633B12846216A9847002842
:102CFC00B8BF4FF0FF36A3891B0603D528462169C0
:102D0C00FFF792FD616B41B104F14403994202D08B
:102D1C002846FFF789FD00236363A16C21B1284687
:102D2C00FFF782FD0023A364FFF710FD0023A381AE
:102D3C00FFF70DFD304670BD58340008783400089C
:102D4C009834000838B5074C002305460846114650
:102D5C00236000F012FB431C02D1236803B12B60EB
:102D6C0038BD00BF8401002038B5064C0023054651
:102D7C000846236000F00FFB431C02D1236803B10B
:102D8C002B6038BD8401002038B5074C0546002067
:102D9C002060084611461A4600F04FFA431C02D137
:102DAC00236803B12B6038BD8401002010B5C9B273
:102DBC0002449042034606D01C788C4200F101007C
:102DCC00F7D1184610BD002010BD2DE9F84315466B
:102DDC001F468A680B69DDF820809A42A8BF13460B
:102DEC002B6091F8432006460C460AB101332B6048
:102DFC002368990602D52B6802332B60236813F0E5
:102E0C0006091DD094F843302268003318BF012303
:102E1C0092061FD5E1185A1C302081F84300224439
:102E2C0094F8451082F84310023313E030463946CB
:102E3C0004F119020123C047013007D009F101093F
:102E4C00E2682B68D31A9945F0DBDBE74FF0FF30D3
:102E5C00BDE8F8833046394604F14302C0470130DF
:102E6C00F4D023682A68E16803F00603042B08BF3A
:102E7C00C2EB01052369A2680CBF25EAE5750025A4
:102E8C009A42C4BFC3EB0203ED184FF00009A945E9
:102E9C000ADA3046394604F11A020123C0470130E0
:102EAC00D4D009F10109F2E70020BDE8F883000055
:102EBC002DE9FF470E7E0C9D6E2E80460C469146EA
:102ECC009A4601F1430000F0A58011D8632E22D060
:102EDC0009D8002E00F0B280582E40F0C28081F844
:102EEC0045607C4A4FE0642E1ED0692E1CD0B8E0A1
:102EFC00732E00F0A78009D86F2E2BD0702E40F0C7
:102F0C00B0800B6843F020030B6038E0752E21D0A5
:102F1C00782E34D0A5E02B681A1D1B682A6001F1AD
:102F2C00420781F84230A0E022682B6812F0800F33
:102F3C0003D01A1D2A601D6805E05706F9D51A1D25
:102F4C002A60B3F90050002D39DA2D236D4284F834
:102F5C00433034E022682B6812F0800F03D01A1D26
:102F6C002A601D6804E05606F9D51A1D2A601D88D2
:102F7C00237E584A6F2B14BF0A2308231BE07823A7
:102F8C00554A84F845302368296813F0800F01F105
:102F9C0004062E6001D00D6802E05D06FBD50D889D
:102FAC00D90744BF43F0200323601DB9236823F0E5
:102FBC00200323601023002184F8431001E0454ACC
:102FCC000A236668A660002E03DB216821F0040149
:102FDC00216005B96EB104F14201B5FBF3F603FBB8
:102FEC0016550F46555D01F801593546002EF4D1A2
:102FFC0000E00746082B0AD12368DA0707D5626878
:10300C0023699A4203DC302307F8013C013FC01BC3
:10301C0020612FE009682B68626911F0800F03D0E2
:10302C00191D29601B6808E011F0400F03F1040121
:10303C0029601B6801D01A8000E01A60002323610C
:10304C00074617E02B681A1D2A601F68384600F0E7
:10305C0057F863682061984288BF236123696360D5
:10306C0005E004F1420784F8426001232361002348
:10307C0084F84330CDF800A04046214603AA4B46C5
:10308C00FFF7A3FE013002D14FF0FF301FE04046A6
:10309C0049463A462369D0470130F5D023689B074F
:1030AC0005D4E068039B9842B8BF18460FE0002592
:1030BC00E268039BD31A9D42F3DA4046494604F179
:1030CC0019020123D0470130DED00135F0E704B0FE
:1030DC00BDE8F087C9340008DA34000838B5074C6D
:1030EC00054600202060084611461A4600F04DF8AF
:1030FC00431C02D1236803B12B6038BD840100202E
:10310C00034613F8012B002AFBD1181A013870471B
:10311C000A4B10B50446186818B183690BB9FFF750
:10312C00ABFA132C07D8064850F83430013302D0D0
:10313C0000EBC40010BD002010BD00BF70000020CB
:10314C00A4000020F8B5044600F042F9002705461B
:10315C00132630463946ABBE06462E602046F8BDD7
:10316C00431C01D1FFF7EEBF704730B585B001AD00
:10317C00019002910392062420462946ABBE0446D8
:10318C002046FFF7EDFF05B030BD70B50E46154675
:10319C00FFF7BEFF044630B900F01AF909230360AB
:1031AC004FF0FF3070BD006831462A46FFF7DDFF57
:1031BC00431C03D06368281A0344636070BDF7B5E1
:1031CC000C461646FFF7A4FF054618B900F000F9A7
:1031DC00092304E0022E06D900F0FAF81623036046
:1031EC004FF0FF3027E0012E03D14368E41812D5CD
:1031FC00F2E7022E0FD102AE036846F8083D0C2709
:10320C0038463146ABBE06463046FFF7A9FF431C95
:10321C0018BF2418E4D02B686F468DE818000A26D6
:10322C0030463946ABBE06463046FFF799FF0028BC
:10323C00D6DB6C60204603B0F0BDFFF7C0BF30B5E5
:10324C0085B001AD019002910392052420462946D8
:10325C00ABBE04462046FFF783FF05B030BD70B50A
:10326C000E461546FFF754FF044620B900F0B0F89F
:10327C000923036011E0006831462A46FFF7DFFF9F
:10328C00031E0ADB6268E81A02449D42626006D1A2
:10329C000020BDE87040FFF755BF4FF0FF3070BD08
:1032AC0037B502AC022544F8040D28462146ABBEC6
:1032BC0004462046FFF754FF03B030BD38B5054631
:1032CC00FFF726FF044630B900F082F809230360AB
:1032DC004FF0FF3038BD013D012D09D8084B9A68DD
:1032EC001B699A4204D14FF0FF330360002038BDB4
:1032FC002068FFF7D5FF10B94FF0FF33236038BDBE
:10330C00A400002008B50A4B1A680AB9094A1A60C9
:10331C001B686A461844904206D900F059F80C23F1
:10332C0003604FF0FF3008BD014A1060184608BD1D
:10333C00A00000208801002070B50C46FFF7E8FEC5
:10334C00054630B900F044F8092303604FF0FF3014
:10335C0070BD636843F4005363604FF48063E362B1
:10336C000C2630462946ABBE05462846FFF7F8FE2C
:10337C00431C1CBF2061002070BD38B53C220546A3
:10338C000C4608460021FEF73FFF28462146BDE8C3
:10339C003840FFF7D1BF70B5FFF7BAFE09250446D8
:1033AC0018B900F015F805600FE028462146ABBEB1
:1033BC000446012C09D000F00BF800240546132616
:1033CC0030462146ABBE06462E60204670BD00003E
:1033DC00014B1868704700BF70000020F8B500BFA3
:1033EC00F8BC08BC9E467047F8B500BFF8BC08BCDA
:0433FC009E46704732
:1034000052656164206572726F720000783A2025FF
:103410006400000020793A2025640000207A3A20D8
:1034200025640000206C6F6F7020706572207365DA
:10343000636F6E643A2025640A000000002000409B
:10344000000000000102030401020304060708094A
:1034500043000000100000200000000000000000F9
:10346000000000000000000000000000000000005C
:10347000000000000000000000000000000000004C
:10348000000000000000000000000000000000003C
:10349000000000000000000000000000000000002C
:1034A000000000000000000000000000000000001C
:1034B0000000000000000000232D302B2000686C6D
:1034C0004C00656667454647003031323334353647
:1034D0003738394142434445460030313233343580
:0C34E000363738396162636465660000AD
:0434EC0025020008AD
:0434F000FD010008D2
:1034F40000180240001802402D3132000024F4006C
:10350400000000005834000878340008983400089B
:1035140000000000000000000000000000000000A7
:10352400503400080000000000000000000000000B
:103534000000000000000000000000000000000087
:103544000000000000000000000000000000000077
:103554000000000000000000000000000000000067
:043564001000002033
:040000050800217559
:00000001FF
